{
	"data": {
		"bytecode": {
			"linkReferences": {},
			"object": "60806040525f6004553480156012575f80fd5b506040516101303803806101308339818101604052810190603291906077565b815f8190555080600181905550505060ae565b5f80fd5b5f819050919050565b6059816049565b81146062575f80fd5b50565b5f815190506071816052565b92915050565b5f8060408385031215608a5760896045565b5b5f6095858286016065565b925050602060a4858286016065565b9150509250929050565b6076806100ba5f395ff3fe608060405260043610601b575f3560e01c8063edca914c14601f575b5f80fd5b60256027565b005b60035f9054906101000a900460ff1615603e575f80fd5b56fea2646970667358221220010d16e04ac1b0ace36132d2f23aef73ceccde889da59f612a1986fdc89fcbfa64736f6c634300081a0033",
			"opcodes": "PUSH1 0x80 PUSH1 0x40 MSTORE PUSH0 PUSH1 0x4 SSTORE CALLVALUE DUP1 ISZERO PUSH1 0x12 JUMPI PUSH0 DUP1 REVERT JUMPDEST POP PUSH1 0x40 MLOAD PUSH2 0x130 CODESIZE SUB DUP1 PUSH2 0x130 DUP4 CODECOPY DUP2 DUP2 ADD PUSH1 0x40 MSTORE DUP2 ADD SWAP1 PUSH1 0x32 SWAP2 SWAP1 PUSH1 0x77 JUMP JUMPDEST DUP2 PUSH0 DUP2 SWAP1 SSTORE POP DUP1 PUSH1 0x1 DUP2 SWAP1 SSTORE POP POP POP PUSH1 0xAE JUMP JUMPDEST PUSH0 DUP1 REVERT JUMPDEST PUSH0 DUP2 SWAP1 POP SWAP2 SWAP1 POP JUMP JUMPDEST PUSH1 0x59 DUP2 PUSH1 0x49 JUMP JUMPDEST DUP2 EQ PUSH1 0x62 JUMPI PUSH0 DUP1 REVERT JUMPDEST POP JUMP JUMPDEST PUSH0 DUP2 MLOAD SWAP1 POP PUSH1 0x71 DUP2 PUSH1 0x52 JUMP JUMPDEST SWAP3 SWAP2 POP POP JUMP JUMPDEST PUSH0 DUP1 PUSH1 0x40 DUP4 DUP6 SUB SLT ISZERO PUSH1 0x8A JUMPI PUSH1 0x89 PUSH1 0x45 JUMP JUMPDEST JUMPDEST PUSH0 PUSH1 0x95 DUP6 DUP3 DUP7 ADD PUSH1 0x65 JUMP JUMPDEST SWAP3 POP POP PUSH1 0x20 PUSH1 0xA4 DUP6 DUP3 DUP7 ADD PUSH1 0x65 JUMP JUMPDEST SWAP2 POP POP SWAP3 POP SWAP3 SWAP1 POP JUMP JUMPDEST PUSH1 0x76 DUP1 PUSH2 0xBA PUSH0 CODECOPY PUSH0 RETURN INVALID PUSH1 0x80 PUSH1 0x40 MSTORE PUSH1 0x4 CALLDATASIZE LT PUSH1 0x1B JUMPI PUSH0 CALLDATALOAD PUSH1 0xE0 SHR DUP1 PUSH4 0xEDCA914C EQ PUSH1 0x1F JUMPI JUMPDEST PUSH0 DUP1 REVERT JUMPDEST PUSH1 0x25 PUSH1 0x27 JUMP JUMPDEST STOP JUMPDEST PUSH1 0x3 PUSH0 SWAP1 SLOAD SWAP1 PUSH2 0x100 EXP SWAP1 DIV PUSH1 0xFF AND ISZERO PUSH1 0x3E JUMPI PUSH0 DUP1 REVERT JUMPDEST JUMP INVALID LOG2 PUSH5 0x6970667358 0x22 SLT KECCAK256 ADD 0xD AND 0xE0 BLOBBASEFEE 0xC1 0xB0 0xAC 0xE3 PUSH2 0x32D2 CALLCODE GASPRICE 0xEF PUSH20 0xCECCDE889DA59F612A1986FDC89FCBFA64736F6C PUSH4 0x4300081A STOP CALLER "
		},
		"gasEstimates": {
			"creation": {
				"codeDepositCost": "23600",
				"executionCost": "infinite",
				"totalCost": "infinite"
			},
			"external": {
				"buyTicket()": "2252"
			}
		},
		"methodIdentifiers": {
			"buyTicket()": "edca914c"
		}
	},
	"abi": [
		{
			"inputs": [
				{
					"internalType": "uint256",
					"name": "_maxTickets",
					"type": "uint256"
				},
				{
					"internalType": "uint256",
					"name": "_maxPurchasableTicketsPerOneUser",
					"type": "uint256"
				}
			],
			"stateMutability": "nonpayable",
			"type": "constructor"
		},
		{
			"inputs": [],
			"name": "buyTicket",
			"outputs": [],
			"stateMutability": "payable",
			"type": "function"
		}
	]
}